:020000021000EC
:10C0000000000220F9C2010021C30100A97302004F
:10C0100025C3010027C3010029C30100000000005F
:10C020000000000000000000000000002BC3010021
:10C030002DC30100000000002FC3010031C3010027
:10C0400089D2010033C3010095D6010033C301003A
:10C0500033C3010033C301001D0A020033C30100D2
:10C0600033C3010033C3010033C3010033C30100F4
:10C0700033C3010033C3010033C3010033C30100E4
:10C0800033C301008D73020033C3010033C30100C9
:10C0900033C3010033C3010033C3010033C30100C4
:10C0A00033C3010033C3010033C3010033C30100B4
:10C0B000818F020033C30100000000000000000077
:10C0C00033C30100998F0200B18F020033C3010016
:10C0D00033C3010033C3010033C3010079F401000D
:10C0E00033C3010033C3010033C30100000000006B
:10C0F00000000000C98F02000000000033C30100EF
:10C10000000000000000000000000000000000002F
:10C11000000000000000000000000000000000001F
:10C12000000000000000000000000000000000000F
:10C1300000000000000000000000000000000000FF
:10C1400000000000000000000000000000000000EF
:10C1500000000000000000000000000000000000DF
:10C1600000000000000000000000000000000000CF
:10C1700000000000000000000000000000000000BF
:10C1800000000000000000000000000000000000AF
:10C19000000000000000000000000000000000009F
:10C1A000000000000000000000000000000000008F
:10C1B000000000000000000000000000000000007F
:10C1C000000000000000000000000000000000006F
:10C1D000000000000000000000000000000000005F
:10C1E000000000000000000000000000000000004F
:10C1F000000000000000000000000000000000003F
:10C200000348044B834202D0034B03B118477047E5
:10C21000AC130020AC1300200000000005480649C4
:10C220000B1AD90F01EBA301491002D0034B03B144
:10C2300018477047AC130020AC130020000000002A
:10C2400010B5064C237843B9FFF7DAFF044B13B15E
:10C250000448AFF300800123237010BD8014002038
:10C2600000000000DCC0020008B5044B1BB104490B
:10C270000448AFF30080BDE80840CFE700000000AD
:10C2800084140020DCC00200A3F5803A704700BF90
:10C29000154B002B08BF114B9D46FFF7F5FF002102
:10C2A0008B460F461148124A121A0DF09BFC0C4B9C
:10C2B000002B00D098470B4B002B00D09847002054
:10C2C000002104000D000B480DF09AFB0DF0CCFB93
:10C2D000200029000CF084FE0DF098FB00000800FF
:10C2E0000000000000000000000002208014002078
:10C2F000B8230020359A02000649074A074B9B1ACB
:10C3000003DD043BC858D050FBDC04F01BFEFFF7F4
:10C31000BFFF0000E4C1020098110020801400203B
:10C32000FEE7FEE7FEE7FEE7FEE7FEE7FEE7FEE7E5
:10C33000FEE7FEE780B400AFBFF34F8F00BF064BB0
:10C34000DB6803F4E0620449044B1343CB60BFF3A2
:10C350004F8F00BF00BFFDE700ED00E00400FA05CD
:10C3600080B483B000AF78607B681B681F2B02D855
:10C370004FF0A04306E07B681B6803F01F027B6858
:10C380001A60034B18460C37BD465DF8047B7047B6
:10C390000003005080B584B000AF786008461146B5
:10C3A0001A460346FB700B46BB7013467B703B1D61
:10C3B0001846FFF7D5FFF860FA78BB785B001A43A0
:10C3C0007B789B001A433B7E1B0242EA03013B7FC2
:10C3D0001B047A681943FB6802F5E07243F82210E7
:10C3E00000BF1037BD4680BD80B584B002AF786015
:10C3F0000023019300230093002301220121786888
:10C40000FFF7C8FF00BF0837BD4680BD80B584B0C8
:10C4100002AF78600B46FB70FB780022019200228D
:10C420000092002200217868FFF7B4FF00BF0837B0
:10C43000BD4680BD80B584B000AF78603B1D184616
:10C44000FFF78EFFF8607B68012202FA03F31946BA
:10C45000F86800F04FF800BF1037BD4680BD80B5CA
:10C4600084B000AF78603B1D1846FFF779FFF86095
:10C470007B68012202FA03F31946F86800F049F8D4
:10C4800000BF1037BD4680BD80B582B000AF786078
:10C4900039603B68002B03D17868FFF7E0FF02E0CA
:10C4A0007868FFF7C7FF00BF0837BD4680BD80B57D
:10C4B00084B000AF78603B1D1846FFF751FFF8606D
:10C4C000F86800F00AF802467B6822FA03F303F0EA
:10C4D000010318461037BD4680BD80B483B000AF5D
:10C4E00078607B68D3F8103518460C37BD465DF888
:10C4F000047B704780B483B000AF786039607B689C
:10C500003A68C3F8082500BF0C37BD465DF8047BC8
:10C51000704780B483B000AF786039607B683A6858
:10C52000C3F80C2500BF0C37BD465DF8047B70478F
:10C5300080B582B000AF7860054A7B6813441B78F1
:10C5400001211846FFF7A0FF00BF0837BD4680BD98
:10C5500094B2020080B582B000AF00237B6005E09A
:10C560007868FFF7E5FF7B6801337B607B68032B0E
:10C57000F6D900BF00BF0837BD4680BD80B500AF0B
:10C580004FF01023D3F8043303F00703072B21D116
:10C59000114B0122C3F8042500BF0F4BD3F8003420
:10C5A000002BFAD04FF01023D3F8043323F0070305
:10C5B0004FF0102243F00403C2F80433064B00226C
:10C5C000C3F8042500BF044BD3F80034002BFAD085
:10C5D000FFF7B0FE00BF80BD00E0014080B582B033
:10C5E00000AF4FF08043D3F8403603F00103002B37
:10C5F00001D0FFF7C3FF00237B6009E0094A7B6895
:10C6000013441B781846FFF7EFFE7B6801337B600D
:10C610007B68032BF2D9FFF79DFF00BF0837BD46AB
:10C6200080BD00BF94B2020080B584B000AF7860D6
:10C6300026231846FFF73BFF0346002B14BF0123B8
:10C640000023FB73FB7B002B14BF01230023DBB211
:10C6500083F00103DBB203F00103DBB218461037AD
:10C66000BD4680BD80B582B000AF00237B6007E08F
:10C67000262303211846FFF7C9FE7B6801337B6040
:10C680007B68002BF4D000BF00BF0837BD4680BDDB
:10C6900080B582B000AF78607B6803F00103002BA7
:10C6A00001D0FFF79BFF7B6803F00203002B01D052
:10C6B000FFF7D8FF00BF0837BD4680BD80B400AF8C
:10C6C0004FF08043D3F818341B0C03F00103002B08
:10C6D00014BF01230023DBB21846BD465DF8047B7E
:10C6E000704780B500AFFFF7E9FF0346184680BDED
:10C6F00080B400AF064BD3F80034002B14BF0123E5
:10C700000023DBB21846BD465DF8047B704700BFCE
:10C710000000014080B500AF00F036FB00BF80BDD7
:10C7200080B500AF00F03EFB024B00225A7000BF04
:10C7300080BD00BF9C14002080B400AF034B1B7869
:10C740001846BD465DF8047B704700BF9C1400206E
:10C7500080B582B000AF00237B60144B1B78002BA8
:10C7600002D085237B6014E0104B00229A600F4BAF
:10C7700000225A600D4B00221A610C4B0022DA6035
:10C780000B4800F0C5FA786000F0E2FA074B01228E
:10C790001A70FFF7ADFF0346002B02D0034B0122B6
:10C7A0009A707B6818460837BD4680BD9C140020EF
:10C7B00099C9010080B485B000AF786039607B68AA
:10C7C0001B68FB6006E0FA683B689A420DD0FB6884
:10C7D0001B68FB60FB68002BF5D17B681A683B681F
:10C7E0001A607B683A681A6000E000BF1437BD46E3
:10C7F0005DF8047B704780B485B000AF78607B68DB
:10C800001B68FB60FB68002B03D0FB681A687B6821
:10C810001A60FB6818461437BD465DF8047B704704
:10C8200080B582B000AF7860194B9B78DBB2002BEB
:10C8300012D07B68002B03D07B685B68012098478F
:10C8400000200AF0FBF9124BDB680133104AD36079
:10C8500000200AF0FDF917E000200AF0EFF97B68EC
:10C86000002B03D079680B48FFF7A4FF084BDB6867
:10C87000002B01D100F07AFA054BDB680133044A42
:10C88000D36000200AF0E4F900BF0837BD4680BD40
:10C890009C140020AC14002080B500AFFFF721FFEE
:10C8A0000346184680BD000080B582B000AF7860B6
:10C8B000194B5B78DBB2002B12D07B68002B03D0C6
:10C8C0007B685B680020984700200AF0B7F9124B9C
:10C8D0005B680133104A536000200AF0B9F917E091
:10C8E00000200AF0ABF97B68002B03D079680B4875
:10C8F000FFF760FF084B5B68002B01D1FFF70AFFD1
:10C90000054B5B680133044A536000200AF0A0F92C
:10C9100000BF0837BD4680BD9C140020A414002031
:10C9200080B500AF00200AF089F9084B5B68013B35
:10C93000064A5360054B5B68002B01D1FFF7F0FE00
:10C9400000200AF085F900BF80BD00BF9C140020C4
:10C9500080B584B000AF0346FB71FB79002B02D198
:10C960000B4BFB6001E00B4BFB60F868FFF743FFEC
:10C97000B860BB68002B05D0BB685B68FA791046CD
:10C980009847F2E700BF00BF1037BD4680BD00BF2B
:10C99000A4140020AC14002080B582B000AF034680
:10C9A000FB71FB79002B05D1094B01225A70002045
:10C9B000FFF7CEFFFB79012B05D1054B01229A70C1
:10C9C0000120FFF7C5FF00BF0837BD4680BD00BF8F
:10C9D0009C14002080B584B000AF78600C4B1B78AD
:10C9E000002B01D085230FE07B68002B01D1094B80
:10C9F0007B60786800F082FBF860FB68002B02D156
:10CA0000034B01221A70FB6818461037BD4680BDE3
:10CA1000B0140020A0B2020080B582B000AF7860F0
:10CA200000F00AF8786800F08FFB00F0A1FB00230B
:10CA300018460837BD4680BD80B500AF00F0A0FBAA
:10CA400000F0A6FB00BF80BD90B486B000AF786058
:10CA500039607B683A6853E8004F04EA020043E813
:10CA6000000191F0000FF6D17C613861F9607B69BB
:10CA700018461837BD4690BC7047000080B483B09C
:10CA800000AF0346FB7197F90730002B0BDBFB79F6
:10CA900003F01F02074997F907305B09012000FAEC
:10CAA00002F241F8232000BF0C37BD465DF8047B3D
:10CAB000704700BF00E100E080B483B000AF0346E0
:10CAC0003960FB7197F90730002B0ADB3B68DAB25B
:10CAD0000C4997F907305201D2B20B4483F8002376
:10CAE0000AE03B68DAB20849FB7903F00F03043B24
:10CAF0005201D2B20B441A7600BF0C37BD465DF826
:10CB0000047B704700E100E000ED00E080B483B0FA
:10CB100000AF78607B681B0B5BB218460C37BD46D4
:10CB20005DF8047B704780B582B000AF03460A46CB
:10CB3000FB711346BB71BA7997F907301146184655
:10CB4000FFF7BAFF00BF0837BD4680BD80B582B091
:10CB500000AF0346FB7197F907301846FFF78EFFC9
:10CB600000BF0837BD4680BD80B483B000AF034628
:10CB7000FB71114A97F90730002B00DA1F335B1164
:10CB80005BB252F8232097F90730594203F01F0394
:10CB900001F01F0158BF4B425BB222FA03F303F0CE
:10CBA0000103002B14BF01230023DBB218460C370E
:10CBB000BD465DF8047B704700E100E080B483B0BF
:10CBC00000AF78604FF080427B68C2F8043300BF4A
:10CBD0000C37BD465DF8047B704780B483B000AF6E
:10CBE00078604FF080427B68C2F8083300BF0C3792
:10CBF000BD465DF8047B704780B483B000AF034648
:10CC0000FB71FB7903F1804301221A6000BF0C37EE
:10CC1000BD465DF8047B704780B485B000AF034625
:10CC2000FB80FB8803F1804300221A60FB8803F13C
:10CC300080431B68FB60FB6800BF1437BD465DF88E
:10CC4000047B704780B483B000AF0346FB80FB8851
:10CC500003F180431B68002B14BF01230023DBB2C8
:10CC600018460C37BD465DF8047B704780B483B02E
:10CC700000AF78604FF080427B68C2F8183500BF83
:10CC80000C37BD465DF8047B704780B483B000AFBD
:10CC90000346FB714FF08043D3F80C3403F00112CC
:10CCA000FB7943F480339A420CBF01230023DBB2AB
:10CCB00018460C37BD465DF8047B704780B582B0DE
:10CCC00000AF0623FB714FF08040FFF71FFF0346C4
:10CCD0001846FFF749FF034683F00103DBB2002B40
:10CCE00012D04FF08040FFF711FF03461A46FB7940
:10CCF00019461046FFF717FF4FF08040FFF706FF79
:10CD000003461846FFF722FF00BF0837BD4680BD27
:10CD100080B485B000AF78600023FB600B4B1B79BB
:10CD2000002B02D08523FB6008E0084A7B68136073
:10CD3000064B01221A71054B00225A71FB681846F6
:10CD40001437BD465DF8047B704700BFB414002063
:10CD500080B500AFFFF7B2FF0120FFF787FF024B5E
:10CD600001221A7000BF80BDBC20002080B500AF3A
:10CD70004FF48270FFF750FF0220FFF71FFF0820DB
:10CD8000FFF73AFF00BF80BD80B500AF4FF4807061
:10CD9000FFF742FF0120FFF711FF0020FFF72CFFF4
:10CDA00000BF80BD80B500AF0120FFF716FF4FF434
:10CDB0008070FFF731FF0420FFF71EFF00BF012046
:10CDC000FFF763FF0346002BF9D1024B00225A7193
:10CDD00000BF80BDB414002080B500AF4FF4807058
:10CDE000FFF730FF0346002B14D04FF48070FFF79D
:10CDF00013FF0120FFF7F1FE104B5B7983F0010375
:10CE0000DBB2002B06D00D4B01225A710B4B1B6875
:10CE1000002098474FF48270FFF714FF0346002B61
:10CE20000AD04FF48270FFF7F7FE0220FFF7D5FE1D
:10CE3000024B1B680120984700BF80BDB41400203E
:10CE400080B483B000AF0346FB7197F90730002B25
:10CE50000BDBFB7903F01F02074997F907305B09E9
:10CE6000012000FA02F241F8232000BF0C37BD4632
:10CE70005DF8047B704700BF00E100E080B483B040
:10CE800000AF03463960FB7197F90730002B0ADBCE
:10CE90003B68DAB20C4997F907305201D2B20B4421
:10CEA00083F800230AE03B68DAB20849FB7903F013
:10CEB0000F03043B5201D2B20B441A7600BF0C3769
:10CEC000BD465DF8047B704700E100E000ED00E046
:10CED00080B483B000AF78607B681B0B5BB21846F0
:10CEE0000C37BD465DF8047B704780B582B000AF5B
:10CEF00003460A46FB711346BB71BA7997F90730AE
:10CF000011461846FFF7BAFF00BF0837BD4680BD7F
:10CF100080B582B000AF0346FB7197F90730184621
:10CF2000FFF78EFF00BF0837BD4680BD80B483B0D9
:10CF300000AF0346FB71114A97F90730002B00DA66
:10CF40001F335B115BB252F8232097F90730594227
:10CF500003F01F0301F01F0158BF4B425BB222FADE
:10CF600003F303F00103002B14BF01230023DBB202
:10CF700018460C37BD465DF8047B704700E100E0C1
:10CF800080B485B000AF0346FB80FB8803F180438B
:10CF900000221A60FB8803F180431B68FB60FB687A
:10CFA00000BF1437BD465DF8047B704780B483B082
:10CFB00000AF0346FB80FB8803F180431B68002B16
:10CFC00014BF01230023DBB218460C37BD465DF8C1
:10CFD000047B704780B584B000AF0346FB80FB88BC
:10CFE0001846FFF7E3FF0346FB73FB7B002B03D0E0
:10CFF000FB881846FFF7C4FFFB7B18461037BD4679
:10D0000080BD80B483B000AF78604FF080427B6811
:10D01000C2F8043300BF0C37BD465DF8047B70478F
:10D0200080B400AF4FF08043D3F804331846BD46B8
:10D030005DF8047B704780B483B000AF78604FF038
:10D0400080427B68C2F8083300BF0C37BD465DF8EC
:10D05000047B704780B483B000AF0346FB71FB795B
:10D06000002B01D0012300E000234FF08042C2F8E2
:10D07000783500BF0C37BD465DF8047B704780B43F
:10D0800083B000AF0346FB71FB79002B01D0012375
:10D0900000E000234FF08042C2F8803500BF0C371B
:10D0A000BD465DF8047B704780B582B000AF0623B3
:10D0B000FB714FF08040FFF70BFF03461846FFF768
:10D0C00035FF034683F00103DBB2002B12D04FF093
:10D0D0008040FFF7FDFE03461A46FB7919461046CD
:10D0E000FFF703FF4FF08040FFF7F2FE03461846BC
:10D0F000FFF70EFF00BF0837BD4680BD80B582B088
:10D1000000AF78600F4B1B78002B01D0852315E012
:10D110007B681B78C3F34003DBB21846FFF7AFFF11
:10D120007B681B78C3F30003DBB21846FFF792FF5E
:10D13000FFF7BAFF034B01221A7000231846083785
:10D14000BD4680BDBD20002080B582B000AF7860B4
:10D1500000F01EF87B681B68002B03D07B681B68FF
:10D16000024A136000BF0837BD4680BDC4140020CA
:10D1700080B500AF4FF46070FFF743FF00BF80BD84
:10D1800080B500AF4FF46070FFF755FF00BF80BD62
:10D1900080B400AF034B00221A6000BFBD465DF8AB
:10D1A000047B7047C414002080B582B000AFFFF745
:10D1B00037FF78607B6803F00403002B09D04FF43D
:10D1C0008470FFF707FF0346002B02D02B4B1B6830
:10D1D00098477B6803F02003002B0AD04FF48A7035
:10D1E000FFF7F8FE0346002B03D0254B1B680020F9
:10D1F00098477B6803F04003002B0AD04FF48C70F3
:10D20000FFF7E8FE0346002B03D01D4B1B680120EF
:10D2100098477B6803F08003002B0AD04FF48E7090
:10D22000FFF7D8FE0346002B03D0164B1B680020E7
:10D2300098477B6803F48073002B0AD04FF49070FA
:10D24000FFF7C8FE0346002B03D00E4B1B680120DE
:10D2500098477B6803F40073002B0AD04FF4927058
:10D26000FFF7B8FE0346002B03D0064B1B680220D5
:10D27000984700BF0837BD4680BD00BFBC140020E2
:10D28000C0140020C414002080B500AFFFF78CFF4D
:10D29000FFF7A2FD00BF80BD80B485B000AF78600D
:10D2A0000B467B807B887A68134400221A607B8857
:10D2B0007A6813441B68FB60FB6800BF1437BD46E7
:10D2C0005DF8047B704780B483B000AF78600B4694
:10D2D0007B807B887A6813441B68002B14BF012372
:10D2E0000023DBB218460C37BD465DF8047B70475F
:10D2F00080B483B000AF786039607B68D3F80423D2
:10D300003B681340002B14BF01230023DBB21846F7
:10D310000C37BD465DF8047B704780B483B000AF26
:10D32000786039607B683A68C3F8082300BF0C371F
:10D33000BD465DF8047B704780B485B000AF78606F
:10D340007B68D3F88034FB607B68FA68C3F880247C
:10D35000FB6818461437BD465DF8047B704780B4FF
:10D3600083B000AF78607B68D3F81835DBB218461D
:10D370000C37BD465DF8047B704780B483B000AFC6
:10D3800078600B46FB70FA787B68C3F81C2500BFF9
:10D390000C37BD465DF8047B704780B483B000AFA6
:10D3A00078600B46FB70FB787A68134401221A60A0
:10D3B00000BF0C37BD465DF8047B704780B584B074
:10D3C00000AF786039604FF48E717868FFF764FFC2
:10D3D0003B689A683B681B6A13441B78FB733B6885
:10D3E0001B6A5A1C3B681A62FB7B19467868FFF778
:10D3F000C4FF00BF1037BD4680BD90B583B000AFFD
:10D40000786039603B689B69002B08D14FF48471C8
:10D410007868FFF741FF7868FFF7A1FF13E04FF44A
:10D4200084717868FFF738FF3B68DA683B685B6AAD
:10D43000D4187868FFF793FF034623703B685B6A54
:10D440005A1C3B685A620C37BD4690BD80B588B007
:10D4500000AFF860B9607A6001233B74BB68BB61C0
:10D460007B687B61FB685B68FA68116807F11002F2
:10D470001046984700BF2037BD4680BD80B586B0B6
:10D4800000AF7860396000233B723B683B617B688A
:10D490009B68FB607B6800225A617B685B687A68E6
:10D4A000116807F108021046984700BF1837BD46BB
:10D4B00080BD80B58AB000AF786039604FF40071EC
:10D4C0007868FFF715FF0346002B39D04FF49271AF
:10D4D0007868FFF7F8FE0346002B31D04FF49271C5
:10D4E0007868FFF7D9FE4FF401717868FFF715FFF0
:10D4F0003B6893F8293083F00103DBB2002B03D0A3
:10D5000004217868FFF749FF02233B737868FFF72F
:10D5100013FF0346BB613B689B697B613B68DB682B
:10D520003B613B6800229A613B680022DA613B68FC
:10D530005B683A68116807F10C021046984752E0A0
:10D5400004217868FFF7D4FE0346002B4BD04FF43C
:10D5500084717868FFF7B7FE0346002B43D0396823
:10D560007868FFF74AFF3B689A693B685B6A9A42B2
:10D5700039D13B68DB69002B19D03B68DB687B62E3
:10D580003B685B6A3B623B68DA693B689A613B686F
:10D590001A693B68DA603B680022DA613B68002266
:10D5A0005A627A6A396A3868FFF750FF1BE03B68B5
:10D5B00093F8293083F00103DBB2002B03D0042160
:10D5C0007868FFF7EAFE4FF401717868FFF7A5FE6F
:10D5D0003B6800229A613B68596A3B68DB681A46DF
:10D5E0003868FFF733FF4FF48E717868FFF76BFEF2
:10D5F0000346002B24D03B685B69FB613B681B6AD8
:10D60000FA699A420DD93B6893F82830DBB283F06F
:10D610000103DBB2002B04D039687868FFF7CEFE37
:10D620000EE04FF48E717868FFF736FE3B685B6959
:10D63000002B05D03B685B6919463868FFF71EFF71
:10D640004FF4A2717868FFF73EFE0346002B1CD012
:10D650004FF4A2717868FFF71FFE3B6893F82930FA
:10D66000002B03D000217868FFF797FE3B689B6989
:10D67000002B0AD03B6800229A613B68596A3B68DC
:10D68000DB681A463868FFF7E1FE00BF2837BD4661
:10D6900080BD000080B500AF02490348FFF709FFD5
:10D6A00000BF80BDC81400200020004080B483B0BB
:10D6B00000AF0346FB7197F90730002B0BDBFB79BA
:10D6C00003F01F02074997F907305B09012000FAB0
:10D6D00002F241F8232000BF0C37BD465DF8047B01
:10D6E000704700BF00E100E080B483B000AF0346A4
:10D6F000FB7197F90730002B12DBFB7903F01F0257
:10D700000A4997F907305B09012000FA02F2203339
:10D7100041F82320BFF34F8F00BFBFF36F8F00BFCF
:10D7200000BF0C37BD465DF8047B704700E100E0A8
:10D7300080B483B000AF0346FB7197F90730002B2C
:10D740000CDBFB7903F01F02074997F907305B09EF
:10D75000012000FA02F2403341F8232000BF0C37C9
:10D76000BD465DF8047B704700E100E080B483B003
:10D7700000AF0346FB7197F90730002B0CDBFB79F8
:10D7800003F01F02074997F907305B09012000FAEF
:10D7900002F2603341F8232000BF0C37BD465DF82C
:10D7A000047B704700E100E080B483B000AF034623
:10D7B0003960FB7197F90730002B0ADB3B68DAB25E
:10D7C0000C4997F907305201D2B20B4483F8002379
:10D7D0000AE03B68DAB20849FB7903F00F03043B27
:10D7E0005201D2B20B441A7600BF0C37BD465DF829
:10D7F000047B704700E100E000ED00E080B483B0FE
:10D8000000AF78607B6803F06043B3F1005F0CBF4A
:10D8100001230023DBB218460C37BD465DF8047BBC
:10D820007047000080B483B000AF78607B689A00D6
:10D83000044B1B68134418460C37BD465DF8047B47
:10D84000704700BF48B3020080B582B000AF034606
:10D850000A46FB711346BB71BA7997F90730114636
:10D860001846FFF7A1FF00BF0837BD4680BD80B551
:10D8700082B000AF0346FB7197F907301846FFF7F7
:10D8800015FF00BF0837BD4680BD000080B483B0DF
:10D8900000AF0346FB71114A97F90730002B00DAFD
:10D8A0001F335B115BB252F8232097F907305942BE
:10D8B00003F01F0301F01F0158BF4B425BB222FA75
:10D8C00003F303F00103002B14BF01230023DBB299
:10D8D00018460C37BD465DF8047B704700E100E058
:10D8E00080B582B000AF0346FB7197F90730184648
:10D8F000FFF7FAFE00BF0837BD4680BD80B582B095
:10D9000000AF0346FB7197F907301846FFF710FF89
:10D9100000BF0837BD4680BD80B582B000AF03466A
:10D92000FB7197F907301846FFF720FF00BF083753
:10D93000BD4680BD80B483B000AF78607B6803F1E2
:10D94000804303F51C3318460C37BD465DF8047B55
:10D95000704780B483B000AF78607B6803F1804388
:10D9600003F51C3318460C37BD465DF8047B704741
:10D9700080B582B000AF0346FB71FB791846FFF714
:10D98000D9FF034601221A60BFF36F8F00BFBFF3B8
:10D990004F8F00BF00BF0837BD4680BD80B582B045
:10D9A00000AF0346FB80FB881846FFF7C3FF034622
:10D9B00000221A60BFF36F8F00BFBFF34F8F00BF0D
:10D9C00000BF0837BD4680BD80B582B000AF0346BA
:10D9D000FB80FB881846FFF7BCFF03461B68002B43
:10D9E00014BF01230023DBB218460837BD4680BDB3
:10D9F00080B584B000AF0346FB80FB881846FFF774
:10DA0000E3FF0346FB73FB7B002B03D0FB88184628
:10DA1000FFF7C4FFFB7B18461037BD4680BD0000F2
:10DA200080B483B000AF7860044A7B68C2F80433E6
:10DA300000BF0C37BD465DF8047B704700700240A4
:10DA400080B400AF034BD3F804331846BD465DF8ED
:10DA5000047B70470070024080B483B000AF7860F0
:10DA6000044A7B68C2F8083300BF0C37BD465DF836
:10DA7000047B70470070024080B400AF074B012266
:10DA8000C3F80025BFF36F8F00BFBFF34F8F00BFF8
:10DA900000BFBD465DF8047B704700BF00700240C8
:10DAA00080B400AF074B0022C3F80025BFF36F8F8F
:10DAB00000BFBFF34F8F00BF00BFBD465DF8047BC2
:10DAC000704700BF0070024080B400AF034BD3F832
:10DAD00000341846BD465DF8047B70470070024074
:10DAE00080B483B000AF7860074A7B68C2F8003426
:10DAF000BFF36F8F00BFBFF34F8F00BF00BF0C3766
:10DB0000BD465DF8047B70470070024080B582B06E
:10DB100000AFFFF7D9FF78607868FFF7E1FFBFF348
:10DB20006F8F00BFBFF34F8F00BF7B681846083769
:10DB3000BD4680BD80B485B000AF0346FB71FB7964
:10DB400003F00F03FB7397F90730002B06DA0A4A3C
:10DB5000FB7B03F5847352F8233006E0064AFB7B17
:10DB600003F588739B0013445B6818461437BD4661
:10DB70005DF8047B704700BF0070024080B582B042
:10DB800000AF0346FB71FB7903F00803002B01D0C3
:10DB9000002309E0FB791846FFF7CCFF0346012B71
:10DBA0000CBF01230023DBB218460837BD4680BDF9
:10DBB00080B400AF034BD3F86C341846BD465DF813
:10DBC000047B70470070024080B483B000AF78607F
:10DBD000074A7B68C2F86C34BFF36F8F00BFBFF396
:10DBE0004F8F00BF00BF0C37BD465DF8047B704708
:10DBF0000070024080B582B000AFFFF7D9FF7860B7
:10DC00007868FFF7E1FF7B6818460837BD4680BD9E
:10DC100080B400AF044BD3F88034DBB21846BD4665
:10DC20005DF8047B704700BF0070024080B400AF15
:10DC3000044BD3F88434DBB21846BD465DF8047B50
:10DC4000704700BF0070024080B483B000AF094B42
:10DC5000D3F88834FB80074BD3F88C349BB21B027B
:10DC60009AB2FB8813439BB218460C37BD465DF849
:10DC7000047B70470070024080B483B000AF094B52
:10DC8000D3F89034FB80074BD3F894349BB21B023B
:10DC90009AB2FB8813439BB218460C37BD465DF819
:10DCA000047B70470070024080B483B000AF094B22
:10DCB000D3F89834FB80074BD3F89C349BB21B02FB
:10DCC0009AB2FB8813439BB218460C37BD465DF8E9
:10DCD000047B70470070024080B485B000AF0346FB
:10DCE000FB71FB7903F00803002B0CD00D4BD3F82C
:10DCF000C034FB60FB6803F48033002B01D00023A9
:10DD0000FB60FB6807E0074AFB7903F00F0303F5AC
:10DD1000947352F8233018461437BD465DF8047BDF
:10DD2000704700BF0070024080B485B000AF03466A
:10DD3000FB710C4BD3F8C034FB60FB68002B03D1A4
:10DD40004FF0FF33FB6006E0FB6803F48033002BE9
:10DD500001D00023FB60FB6818461437BD465DF810
:10DD6000047B70470070024080B483B000AF03466C
:10DD7000FB710A4AFB7903F00F0303F5947300214A
:10DD800042F82310BFF36F8F00BFBFF34F8F00BF68
:10DD900000BF0C37BD465DF8047B70470070024041
:10DDA00080B400AF074B0122C3F80425BFF36F8F87
:10DDB00000BFBFF34F8F00BF00BFBD465DF8047BBF
:10DDC000704700BF0070024080B400AF074B0022D4
:10DDD000C3F80425BFF36F8F00BFBFF34F8F00BFA1
:10DDE00000BFBD465DF8047B704700BF0070024075
:10DDF00080B483B000AF0346FB71054AFB79C2F8DB
:10DE0000083500BF0C37BD465DF8047B704700BF86
:10DE10000070024080B483B000AF03460A46FB7135
:10DE20001346BB710C4AFB79C2F80C35BFF34F8F18
:10DE300000BFFA79BB791B021A43074BC3F80C25C4
:10DE4000BFF36F8F00BFBFF34F8F00BF00BF0C3712
:10DE5000BD465DF8047B70470070024080B485B019
:10DE600000AF0346FB71FB7903F00F03FB7397F9D7
:10DE70000730002B0DDA104BD3F81025FB7B22FA6C
:10DE800003F303F00103002B14BF01230023DBB2D3
:10DE90000CE0094BD3F81425FB7B22FA03F303F0C3
:10DEA0000103002B14BF01230023DBB218461437F3
:10DEB000BD465DF8047B70470070024080B485B0B9
:10DEC00000AF0346FB71FB7903F00F03FB7397F977
:10DED0000730002B0BDA114BD3F81025FB7B012107
:10DEE00001FA03F30D491343C1F810350AE00B4B57
:10DEF000D3F81425FB7B012101FA03F307491343EF
:10DF0000C1F81435BFF36F8F00BFBFF34F8F00BF51
:10DF100000BF1437BD465DF8047B704700700240B7
:10DF200080B485B000AF0346FB71FB7903F00F03AB
:10DF3000FB7397F90730002B0CDA124BD3F810253E
:10DF4000FB7B012101FA03F3DB430E491340C1F8C7
:10DF500010350BE00B4BD3F81425FB7B012101FAA4
:10DF600003F3DB4307491340C1F81435BFF36F8F48
:10DF700000BFBFF34F8F00BF00BF1437BD465DF831
:10DF8000047B70470070024080B483B000AF03464A
:10DF9000FB71FB79084A43F48073C2F81835BFF36C
:10DFA0006F8F00BFBFF34F8F00BF00BF0C37BD4660
:10DFB0005DF8047B704700BF0070024080B483B0FE
:10DFC00000AF0346FB71084AFB79C2F81835BFF36E
:10DFD0006F8F00BFBFF34F8F00BF00BF0C37BD4630
:10DFE0005DF8047B704700BF0070024080B483B0CE
:10DFF00000AF0346FB71054AFB79C2F81C3500BF30
:10E000000C37BD465DF8047B704700BF00700240CE
:10E0100080B400AF034BD3F820351846BD465DF8F9
:10E02000047B70470070024080B400AF044B0122B3
:10E03000C3F82C2500BFBD465DF8047B704700BFC8
:10E040000070024080B400AF044B0022C3F82C25BE
:10E0500000BFBD465DF8047B704700BF0070024002
:10E0600080B400AF064BD3F82C35002B14BF01232E
:10E070000023DBB21846BD465DF8047B704700BF45
:10E080000070024080B483B000AF0346FB71054AC4
:10E09000FB79C2F8303500BF0C37BD465DF8047B14
:10E0A000704700BF0070024080B487B000AF0346E5
:10E0B000B9607A60FB7397F90F30002B28DAFB7B8D
:10E0C00003F00803002B08D0284ABB68C2F8A0362A
:10E0D000264A7B68C2F8A43642E0FB7B03F00F03BC
:10E0E000BB752249BA7D13469B0013449B000B4429
:10E0F00003F5C063BA681A601C49BA7D13469B00D9
:10E1000013449B000B4403F204637A681A6027E00F
:10E11000FB7B03F00803002B08D0144ABB68C2F84D
:10E12000A037124A7B68C2F8A43719E0FB7B03F0E2
:10E130000F03FB750D49FA7D13469B0013449B00AA
:10E140000B4403F5E063BA681A600849FA7D134688
:10E150009B0013449B000B4403F204737A681A601B
:10E1600000BF1C37BD465DF8047B7047007002405D
:10E1700080B483B000AF184B1B687B60174B1B68E3
:10E180003B607B68082B1FD13B68052B1AD801A286
:10E1900052F823F0ADE10100B1E10100B5E1010069
:10E1A000B9E10100BDE10100C1E1010001230CE082
:10E1B00001230AE0012308E0012306E0012304E033
:10E1C000012302E0012300E0002318460C37BD467E
:10E1D0005DF8047B704700BF30010010340100106F
:10E1E00080B483B000AF184B1B687B60174B1B6873
:10E1F0003B607B68082B1FD13B68052B1AD801A216
:10E2000052F823F01DE2010021E2010025E20100A5
:10E2100029E201002DE2010031E2010001230CE0BE
:10E2200001230AE0012308E0012306E0012304E0C2
:10E23000012302E0012300E0002318460C37BD460D
:10E240005DF8047B704700BF3001001034010010FE
:10E2500080B483B000AF184B1B687B60174B1B6802
:10E260003B607B68082B1FD13B68052B1AD801A2A5
:10E2700052F823F08DE2010091E2010095E20100E5
:10E2800099E201009DE20100A1E2010000230CE0FF
:10E2900001230AE0012308E0012306E0012304E052
:10E2A000012302E0012300E0002318460C37BD469D
:10E2B0005DF8047B704700BF30010010340100108E
:10E2C00080B483B000AF184B1B687B60174B1B6892
:10E2D0003B607B68082B1FD13B68052B1AD801A235
:10E2E00052F823F0FDE2010001E3010005E3010023
:10E2F00009E301000DE3010011E3010001230CE03B
:10E3000001230AE0012308E0012306E0012304E0E1
:10E31000012302E0012300E0002318460C37BD462C
:10E320005DF8047B704700BF30010010340100101D
:10E3300080B400AF00231846BD465DF8047B7047EB
:10E3400080B500AFFFF714FF0346184680BD80B5C7
:10E3500000AFFFF745FF0346184680BD80B500AF0C
:10E36000FFF776FF0346184680BD80B500AFFFF784
:10E37000A7FF0346184680BD80B500AFFFF7D8FF62
:10E380000346184680BD000080B483B000AF03464A
:10E39000FB7197F90730002B01DA074A00E0074AC2
:10E3A000FB7903F00F035B0013441B8818460C37FE
:10E3B000BD465DF8047B704720B3020034B3020011
:10E3C00080B483B000AF0346FB7197F90730002B90
:10E3D00001DA084A00E0084AFB7903F00F0313440E
:10E3E0001B781A460123934018460C37BD465DF84A
:10E3F000047B70474CB3020058B3020080B487B06E
:10E4000000AFF860B9607A603B60BB683B613B6914
:10E410005B687B617A693B689A4207D2FB6800229D
:10E420005A60FB683A6912681A6013E0FB683A6840
:10E430005A60FB683A6912681A607A693B68D31AB5
:10E440007B613B697A695A603B691A683B681A4488
:10E450003B691A607A683B689A4204D17B69002B59
:10E4600001D0012300E0002303F00103DBB21846D2
:10E470001C37BD465DF8047B704780B487B000AFA1
:10E48000F860B9607A60BB683B613B695B687B613F
:10E490007A697B689A4201D97B687B61FB683A693B
:10E4A00012681A60FB687A695A603B695A687B692E
:10E4B000D21A3B695A603B691A687B691A443B6906
:10E4C0001A603B695B68002B14BF01230023DBB299
:10E4D00018461C37BD465DF8047B704780B487B092
:10E4E00000AFF860B9607A60BB683B613B695B680C
:10E4F0007B617A697B689A4201D97B687B617B6921
:10E50000002B02D03B691B6800E00023FA6813600F
:10E51000FB687A695A603B695A687B69D21A3B6921
:10E520005A603B691A687B691A443B691A607B69C7
:10E53000002B14BF01230023DBB218461C37BD4655
:10E540005DF8047B704780B588B000AFF860B960B3
:10E550007A60BB68BB61BB695B68FB6101F096FBDD
:10E560007861FA697B689A4201D97B68FB61BB6973
:10E570001B68FA69194678690BF09AFAFB687A69A0
:10E580001A60FB68FA695A60BB695A68FB69D21A5B
:10E59000BB695A60BB691A68FB691A44BB691A6097
:10E5A000BB695B68002B14BF01230023DBB2184654
:10E5B0002037BD4680BD80B588B000AFF860B96037
:10E5C0007A60BB68BB61BB695B68FB6101F05EFBA5
:10E5D0007861FA697B689A4201D97B68FB61FB69C3
:10E5E000002B0AD0BB691B68FA69194678690BF0E1
:10E5F0005FFAFB687A691A6002E0FB6800221A6021
:10E60000FB68FA695A60BB695A68FB69D21ABB6930
:10E610005A60BB691A68FB691A44BB691A60FB69D6
:10E62000002B14BF01230023DBB218462037BD4660
:10E6300080BD80B483B000AF0346FB71FB79184600
:10E640000C37BD465DF8047B704780B483B000AFE3
:10E650000346FB7197F90730002B01DA042200E032
:10E660002822FB7903F00F03DBB29B00DBB21344DB
:10E67000DBB218460C37BD465DF8047B70470000DE
:10E6800080B483B000AF0346FB7197F90730002BCD
:10E6900001DA074A00E0074AFB7903F00F031B0188
:10E6A000134418460C37BD465DF8047B704700BF25
:10E6B0009C1500200C15002080B483B000AF0346E9
:10E6C000FB7197F90730002B01DA002200E01022DD
:10E6D000FB7903F00F03DBB21344DBB218460C37AF
:10E6E000BD465DF8047B704780B483B000AF03463D
:10E6F000FB71FB790F2B03D9FB79103BDBB203E0F5
:10E70000FB7963F07F03DBB218460C37BD465DF83A
:10E71000047B704780B500AFFFF727FE0346002B50
:10E7200002D0044B82221A60034B01221A7000BFF0
:10E7300080BD00BF1C7C02400815002080B500AFE2
:10E74000FFF713FE0346002B02D0044B00221A6091
:10E75000034B00221A7000BF80BD00BF1C7C02402A
:10E760000815002080B582B000AF0346FB71FB792D
:10E770001846FFF76AFF03461846FFF7F9F800BF8F
:10E780000837BD4680BD80B582B000AF0346FB713F
:10E79000FB791846FFF776FC00BF0837BD4680BD01
:10E7A00090B587B000AF0346FB71002008F046FA31
:10E7B000FB791846FFF764FF786197F90730002B63
:10E7C00035DB584B1B68DC43FB791846FFF774FFB9
:10E7D00003461A46012393402340002B04D0FB79C3
:10E7E000184601F00DFB1EE07B6900221A60FB79E0
:10E7F0001846FFF761FF03461A4601239340DA43A8
:10E80000484B1B681340474A1360FB791846FFF7D3
:10E8100053FF03461A4601239340DA43424B1B68D9
:10E820001340414A13607B6903229A7372E0FB79BB
:10E8300003F00803002B2DD1FB79802B17D0FB7937
:10E8400003F00F0303F2DA33384A5B001360384BEE
:10E850001B68BB74BB7C43F00203BB74344B1A6867
:10E86000BB7C334913430B60314B1B6812E02F4BC9
:10E8700040F2B4721A602E4B1B68FB74FB7C43F0B1
:10E880000403FB742A4B1A68FB7C294913430B6071
:10E89000274B1B68244B1B68DA43224B1B6842EA58
:10E8A0000304FB791846FFF707FF03461A460123C6
:10E8B00093402340002B2DD0FB791846FFF7FCFE38
:10E8C00003461A4601239340DA43164B1B68134054
:10E8D000144A1360FB791846FFF7EEFE03461A460A
:10E8E000012303FA02F2104B1B6813430E4A136014
:10E8F0007B6900221A607B6903229A7306233B73AB
:10E90000FB79BB730323FB730A4B1B6807F10C02F3
:10E9100010469847002008F09BF900BF1C37BD4601
:10E9200090BD00BF041500200015002000780240B3
:10E9300004780240F814002080B582B000AF03468E
:10E94000FB71FB791846FFF72BFF00BF0837BD4668
:10E9500080BD000080B586B000AF1F4B1B681B0C4C
:10E960001B041E4A126813437B612AE07B69BB606B
:10E97000BB6893FAA3F37B607B68FB60FB68002BAA
:10E9800001D1202303E0FB68B3FA83F3DBB2FB740D
:10E99000FB7C1846FFF7A8FE034603F00803002B94
:10E9A00007D1FB7C1846FFF79FFE03461846FFF78A
:10E9B000F7FEFB7C012202FA03F3DB437A69134082
:10E9C0007B617B69002BD1D1034B40F2FF121A60AF
:10E9D00000BF1837BD4680BD00150020041500207B
:10E9E00080B500AF2720FEF789FF00BF80BD000083
:10E9F00080B582B000AF094B00221A70084B00228C
:10EA00001A7000237B6001233B71064B1B683A1D83
:10EA10001046984700BF0837BD4680BDFC14002053
:10EA2000FD140020F814002080B400AF00BFBD46E4
:10EA30005DF8047B7047000080B582B000AF802392
:10EA4000FB71FFF77BFEFB791846FFF719FE386074
:10EA50003B689B7B032B0DD1FB791846FFF72CFEFF
:10EA600003461A4601239340DB4319460C48FDF741
:10EA7000EBFF10E03B681B68002B0CD1FB791846BC
:10EA8000FFF71AFE03461A4601239340DB4319465B
:10EA90000348FDF7D9FF00BF0837BD4680BD00BF62
:10EAA0000415002080B584B000AF0346FB71FFF76A
:10EAB00045FEFB791846FFF7E3FDF860FB689B7B9A
:10EAC000032B0DD1FB791846FFF7F6FD03461A46D6
:10EAD00001239340DB4319460C48FDF7B5FF10E0D6
:10EAE000FB681B68002B0CD1FB791846FFF7E4FD8F
:10EAF00003461A4601239340DB4319460348FDF7BA
:10EB0000A3FF00BF1037BD4680BD00BF0415002025
:10EB100080B584B000AF0346FB71FFF70FFEFB79B1
:10EB20001846FFF7ADFDF860FB689B7B032B0DD10A
:10EB3000FB791846FFF7C0FD03461A4601239340B0
:10EB4000DB4319461248FDF77FFF1CE0FB681B689A
:10EB5000002B18D1FB791846FFF7AEFD03461A4685
:10EB600001239340DB4319460948FDF76DFF062357
:10EB70003B72FB79BB720023FB72064B1B6807F1EB
:10EB800008021046984700BF1037BD4680BD00BF41
:10EB900004150020F814002080B584B000AF0023D5
:10EBA000FB73FFF7CBFDFB7B1846FFF769FDB860F1
:10EBB000BB689B7B032B0DD1FB7B1846FFF77CFDCD
:10EBC00003461A4601239340DB4319461348FDF7D9
:10EBD0003BFF1EE0BB681B68002B18D1FB7B18466F
:10EBE000FFF76AFD03461A4601239340DB431946AB
:10EBF0000A48FDF729FF06233B71FB7BBB7100230D
:10EC0000FB71074B1B683A1D1046984701E001F065
:10EC1000D5F800BF1037BD4680BD00BF04150020E9
:10EC2000F814002080B584B000AF0346FB71FFF7F5
:10EC300085FDFB791846FFF723FDF860FB689B7B99
:10EC4000032B0DD1FB791846FFF736FD03461A4614
:10EC500001239340DB4319461348FDF7F5FE1CE002
:10EC6000FB681B68002B18D1FB791846FFF724FDC1
:10EC700003461A4601239340DB4319460A48FDF731
:10EC8000E3FE06233B72FB79BB720023FB72074B4A
:10EC90001B6807F108021046984700F05FFA00BFB2
:10ECA0001037BD4680BD00BF04150020F8140020B9
:10ECB00080B584B000AF0346FB71FFF73FFDFB79E1
:10ECC0001846FFF7DDFCF860FB689B7B032B1CD02C
:10ECD000FB681B68002B18D1FB791846FFF7ECFC8A
:10ECE00003461A4601239340DB4319460948FDF7C2
:10ECF000ABFE06233B72FB79BB720023FB72064B13
:10ED00001B6807F108021046984700BF1037BD4640
:10ED100080BD00BF04150020F814002080B500AFAE
:10ED2000FFF78AFE00BF80BD80B500AF8120FFF7EE
:10ED3000B9FE00BF80BD80B500AF8220FFF7B2FEF4
:10ED400000BF80BD80B500AF8320FFF7ABFE00BFE2
:10ED500080BD80B500AF8420FFF7A4FE00BF80BD5A
:10ED600080B500AF8520FFF79DFE00BF80BD80B558
:10ED700000AF8620FFF796FE00BF80BD80B500AFD4
:10ED80008720FFF78FFE00BF80BD80B500AF8820D1
:10ED9000FFF7BEFE00BF80BD80B500AFFFF7FCFEF1
:10EDA00000BF80BD80B500AF0120FFF73BFF00BF73
:10EDB00080BD80B500AF0220FFF734FF00BF80BDEB
:10EDC00080B500AF0320FFF72DFF00BF80BD80B5E9
:10EDD00000AF0420FFF726FF00BF80BD80B500AF65
:10EDE0000520FFF71FFF00BF80BD80B500AF0620E4
:10EDF000FFF718FF00BF80BD80B500AF0720FFF709
:10EE000011FF00BF80BD80B500AF0820FFF750FFA5
:10EE100000BF80BD80B582B000AF00233B70FFF71C
:10EE2000F7F803469BB27B808820FFF745FC03463A
:10EE30001A46012393407B600820FEF775FF0346C6
:10EE4000B3F1FF3F09D00820FFF736FC03461A460E
:10EE5000012393407A6813437B60074B1A687B68F1
:10EE60001343054A1360054B1B683A461046984702
:10EE700000BF0837BD4680BD00150020F8140020F3
:10EE800080B584B000AF03460A46FB711346BB71E0
:10EE9000BB7901229A40254B1B681343234A136018
:10EEA00097F90730002B29DAFB791846FFF76CFA3F
:10EEB00003461846FEF79CFD0346002B09D0FB795C
:10EEC000802B04D0FB791846FFF7ECFD01E0FFF73B
:10EED000B3FDBB7901229A40154B1B681340002BF0
:10EEE00020D106233B73FB79BB730023FB73114BCB
:10EEF0001B6807F10C021046984713E0BB7901220A
:10EF00009A400B4B1B681340002B0BD106233B721E
:10EF1000FB79BB720123FB72064B1B6807F10802E9
:10EF20001046984700BF1037BD4680BD0015002031
:10EF300004150020F814002098B500AF064B1C788B
:10EF4000054B1B781846FFF7B7FB034619462046CA
:10EF5000FFF796FF00BF98BDFD14002090B583B069
:10EF600000AFFEF755FE0346FB71284B1B68DB43E1
:10EF70009AB2274B1B6842EA0304264B1B781846BB
:10EF8000FFF79AFB03461A46012393402340002BC8
:10EF900004D0204B1B781846FFF702FC97F9073086
:10EFA000002B01DB002200E080221A4B1A700020A7
:10EFB000FFF782FB03461A46012303FA02F480207E
:10EFC000FFF77AFB03461A46012393402343DB43B2
:10EFD00019460F48FDF738FD8020FFF76DFB03460B
:10EFE0001A46012303FA02F2084B1B681343074A2F
:10EFF000136000233B6005233B70074B1B683A46B8
:10F000001046984700BF0C37BD4690BD0015002044
:10F0100004150020FD140020F814002080B584B0F1
:10F0200000AFFEF773FDF860FB6803F48073002BFC
:10F030000CD01F4B01221A700023BB6002233B72CD
:10F040001C4B1B6807F1080210469847FB6803F445
:10F050000073002B0BD0164B00221A7000237B602C
:10F0600003233B71134B1B683A1D10469847FB68FE
:10F0700003F48063002B16D00D4B1B78DBB2002B02
:10F0800011D00B4B00221A700120FEF7B1FE582060
:10F09000FEF76EFC00233B6004233B70054B1B68AE
:10F0A0003A461046984700BF1037BD4680BD00BFA6
:10F0B000FC140020F814002080B586B000AFFEF7E5
:10F0C00099FD786125E07B69BB60BB6893FAA3F387
:10F0D0007B607B68FB60FB68002B01D1202303E091
:10F0E000FB68B3FA83F3DBB2FB74FB7C1846FFF7D3
:10F0F000FBFA0346BB74FB7C012202FA03F3DB43F9
:10F100007A6913407B61FA7CBB7C11461846FFF795
:10F11000B7FE7B69002BD6D100F020F800BF18376E
:10F12000BD4680BD80B487B000AF78607B683B612E
:10F130003B6993FAA3F3FB60FB687B617B69002B5F
:10F1400001D1202303E07B69B3FA83F3DBB21846D5
:10F150001C37BD465DF8047B7047000090B589B050
:10F1600000AF5F4B1B7883F00103DBB2002B00F094
:10F17000B380A5E03B6903F00123002B08D03B6975
:10F1800003F001231846FFF7CDFF0346FB7304E0AD
:10F190003869FFF7C7FF0346FB73FB7B1846FFF791
:10F1A000A3FA0346BB77BB7F1846FFF769FAB8613D
:10F1B00097F91E30002B13DABB691B68BA695168D6
:10F1C000BA699289381D98470346FB77FB7F83F025
:10F1D0000103DBB2002B3CD0BB6900221A6038E08F
:10F1E000BB7F184600F05CFD7861BB691C68BB6999
:10F1F0005968BB699B891A46381D7B69A04703463D
:10F20000FB777B68002B1BD0BB687A699A4217D9C1
:10F21000BB6902229A73FB7B012202FA03F3DB43F0
:10F2200019463048FDF710FC06233B70BB7FBB70CE
:10F230000223FB702C4B1B683A46104698473FE070
:10F24000FB7F83F00103DBB2002B02D0BB690022FD
:10F250001A60FFF75FFAFB7B012202FA03F3DA433D
:10F26000224B1B681340214A1360BB699A68BB6834
:10F270001A44BB699A607968BA68BB7F1846FEF782
:10F2800013FFBB7F1846FFF76DFA00BFBB7F184620
:10F29000FFF77AF803461846FEF796FB034683F01D
:10F2A0000103DBB2002B16D04FF48070FEF78CFB0D
:10F2B000034683F00103DBB2002BE7D100BF0BE074
:10F2C000084B1A68094B1B6813403B613B69002BD4
:10F2D0007FF450AF00E000BF00BF2437BD4690BDB3
:10F2E0000815002004150020F81400200015002047
:10F2F00090B583B000AF0346FB8000BFFC88FEF7EB
:10F30000E3FB03462340002BF8D0FB881846FEF7AA
:10F31000E7FB00BF0C37BD4690BD000080B500AFD5
:10F32000002007F08BFC0C4B1B68002B0BD10A4B09
:10F3300049F275321A60094BC0221A60064B49F235
:10F3400075321A6002E0054BC0221A60002007F0F7
:10F350007FFC00BF80BD00BF00EC064014EC0640FF
:10F3600080B500AF002007F069FC0C4B1B68002B38
:10F370000BD10A4B49F275321A60094B00221A6010
:10F38000064B49F275321A6002E0054B00221A6002
:10F39000002007F05DFC00BF80BD00BF00EC064010
:10F3A00014EC064080B500AF002007F047FC0C4B82
:10F3B0001B68002B0BD10A4B49F275321A60094BBE
:10F3C00003221A60064B49F275321A6002E0054BBF
:10F3D00003221A60002007F03BFC00BF80BD00BF85
:10F3E00000EC064014ED064080B500AF002007F0A9
:10F3F00025FC0C4B1B68002B0BD10A4B49F27532D4
:10F400001A60094B00221A60064B49F275321A60E5
:10F4100002E0054B00221A60002007F019FC00BF33
:10F4200080BD00BF00EC064014ED064080B500AF83
:10F43000FEF794FF0346002B01D0FFF7B3FFFEF762
:10F4400086FF0346002B01D0FFF768FFFEF714FB91
:10F450004FF40060FFF74CFFFEF779FF0346002BE7
:10F4600001D0FFF77DFFFEF779FF0346002B01D0A7
:10F47000FFF7BAFF00BF80BD80B58AB000AFFEF7CE
:10F48000DFFAF861FB697B6200233B622CE07B6A58
:10F490003B613B6993FAA3F3FB60FB687B617B698B
:10F4A000002B01D1202303E07B69B3FA83F3DBB2A5
:10F4B0007B767B7E1846FEF7B5F903469BB218466D
:10F4C000FEF796FA0346002B06D07B7E012202FA55
:10F4D00003F33A6A13433B627B7E012202FA03F391
:10F4E000DB437A6A13407B627B6A002BCFD13B6A95
:10F4F00003F40003002B14BF01230023FB763B6AB7
:10F5000023F400033B621EE03B6A7B607B6893FA56
:10F51000A3F33B603B68BB60BB68002B01D1202399
:10F5200003E0BB68B3FA83F3DBB2BB76BB7E0D4A64
:10F5300052F823309847BB7E012202FA03F3DB43E3
:10F540003A6A13403B623B6A002BDDD1FFF706FEAF
:10F55000FB7E002B01D0044B984700BF2837BD46E7
:10F5600080BD00BFBCB202005DEF010080B586B077
:10F5700000AF7860304B1B78002B01D0082356E099
:10F580002E4A7B6813602C4B01221A700023FB75F6
:10F5900022E0FB7D63F07F03FB73FB7B03F008033A
:10F5A000002B02D04FF4007200E04022FB7B11469A
:10F5B000184600F0C9F9FB7B1846FFF761F8B86000
:10F5C000BB6800229A73BB6800221A60BB680022E5
:10F5D0009A60FB7D0133FB75FB7D082BD9D9002395
:10F5E000FB7520E0FB7DBB75BB7D03F00803002BA2
:10F5F00002D04FF4007200E04022BB7D1146184655
:10F6000000F0A2F9BB7D1846FFF73AF838613B6974
:10F6100000229A733B6900221A603B6900229A60BB
:10F62000FB7D0133FB75FB7D082BDBD900231846DE
:10F630001837BD4680BD00BFF4140020F814002028
:10F6400080B400AF054B00221A60054B00221A70EF
:10F6500000BFBD465DF8047B704700BFF814002072
:10F66000F414002080B500AF4FF40060FEF738FAC4
:10F67000FFF7DCFEFEF780FE0346002B0AD0214B8D
:10F680001B78002B06D0FEF70BFAFFF7CFFE1D4BC1
:10F6900000221A70FEF762FE0346002B01D0FFF72E
:10F6A00081FEFEF74DFE0346002B0CD0164B40F2B8
:10F6B000E3721A60154B40221A60BFF36F8F00BFD0
:10F6C000BFF34F8F00BF8020FEF790FC0020FFF7B4
:10F6D0005AF80F4B40F2FF121A600E4B00221A60CC
:10F6E000FFF72CF80C4B00221A700C4B02221A70F8
:10F6F000FEF734FE0346002B01D0FFF775FE00BF76
:10F7000080BD00BF981100200078024004780240BC
:10F710000015002004150020FD140020F414002022
:10F7200080B500AF00F038F8FEF78AF903461846B6
:10F73000FEF792F9FEF7B4F9FFF700F8024B012249
:10F740001A7000BF80BD00BFF414002080B584B0E3
:10F7500000AF0346FB710E4B00221A700D4BFB608D
:10F76000FB79002B03D0FB6843F40013FB60F868BF
:10F77000FEF756F906212720FEF766F82720FEF748
:10F7800076F8FEF70DFB00BF1037BD4680BD00BF09
:10F79000FC1400200714C00180B500AF2720FEF73D
:10F7A000BBF82720FEF772F80346002B0AD0FFF7BC
:10F7B000D1F8FEF709FB2720FEF792F84FF0FF3053
:10F7C000FEF74AF900BF80BD80B400AF054B1B783F
:10F7D000002B14BF01230023DBB21846BD465DF8A1
:10F7E000047B7047F414002080B400AF054B1B78F5
:10F7F000012B8CBF01230023DBB21846BD465DF808
:10F80000047B7047F414002080B500AFFFF7ECFFD5
:10F810000346002B07D02720FEF738F80346002BBD
:10F8200001D0012300E0002303F00103DBB21846FE
:10F8300080BD000080B582B000AF0023FB710020C6
:10F8400007F0FCF9114B1B78DBB2002B16D0FFF749
:10F8500081F8FEF739F9034603F40073002B0DD14C
:10F86000FEF7E2FBFEF730F9034603F40073002BCA
:10F8700002D0FEF7E7FB01E00123FB71002007F057
:10F88000E7F9FB7918460837BD4680BDFC14002017
:10F8900080B582B000AF0023FB71002007F0CEF9E5
:10F8A000164B1B78DBB2002B20D0FEF7D9FB0346AA
:10F8B000002B1BD0FEF7C6FB0123FB71FEF747FDB3
:10F8C0000346002B12D00E4B1B68002B0BD10C4BA8
:10F8D00049F275321A600B4BC0221A60084B49F28C
:10F8E00075321A6002E0074BC0221A60002007F050
:10F8F000AFF9FB7918460837BD4680BDFC140020DF
:10F9000000EC064014EC064080B500AF024B1846F0
:10F91000FEF7A2F800BF80BD0414800180B500AFDF
:10F92000024B1846FEF77CF800BF80BD041480012E
:10F9300080B400AF034B00221A7000BFBD465DF8D3
:10F94000047B7047FC14002080B584B000AF0346F0
:10F950000A46FB711346BB80FB791846FEF790FE02
:10F96000F860FB68BA889A8100BF1037BD4680BD39
:10F9700080B584B000AF0346FB71FB791846FEF7F3
:10F980007FFEF860FB689B8918461037BD4680BD36
:10F9900080B582B000AF0346FB71FB791846FEF7D5
:10F9A00048FE03461846FEF759FA0346184608373C
:10F9B000BD4680BD80B582B000AF0346FB71FB79C8
:10F9C0001846FEF7FDFC03461846FEF729F8FB79BA
:10F9D0001846FEF743FA0346002B2ED1FB79184652
:10F9E000FEF727FE03461846FEF768FAFB7903F098
:10F9F0000F03002B22D097F90730002B1EDBFB7979
:10FA000003F00803002B19D1002007F017F9FB7948
:10FA1000184600F0F5F9FB791846FEF74DFE03464F
:10FA20001A4601239340DA43064B1B681340054AEC
:10FA30001360002007F00CF900E000BF0837BD4656
:10FA400080BD00BF0415002080B582B000AF034622
:10FA5000FB71FB791846FEF7A3FEFB791846FEF70B
:10FA6000E8FD03461846FEF75BFAFB791846FEF7F9
:10FA7000A7FC03461846FDF7EFFF00BF0837BD4659
:10FA800080BD000080B586B000AF03463960FB71D1
:10FA9000FB791846FEF710FE0346FB72002007F0C4
:10FAA000CDF8FB7903F00F03002B07D1404B1B78F7
:10FAB000FA799A4202D010237B6170E03D4B1B68BB
:10FAC000DB439AB23C4B1B681A43FB7A012101FAD3
:10FAD00003F31340002B02D011237B615FE0FB791D
:10FAE0001846FEF7CDFDF86097F90730002B2EDAA7
:10FAF000FB7903F00F0213465B0013449B001A4688
:10FB00002E4B13443B613B681B681846FDF776FE9D
:10FB10000346002B0DD03B689B6803F00103002BCC
:10FB200003D1FB68264A1A601FE0FB68254A1A6069
:10FB30001BE03B689B6803F00103002B03D1FB68CB
:10FB4000214A1A6011E0FB68204A1A600DE0FB7937
:10FB500003F00F0213465B0013449B001A461C4B34
:10FB600013443B61FB681B4A1A603B693A6807CA49
:10FB700083E80700FB683A695A60FB6800229A60D4
:10FB8000FB6800229A73FB7A01229A400A4B1B6899
:10FB90001343094A136000237B61FEF721FF002015
:10FBA00007F056F87B6918461837BD4680BD00BF80
:10FBB000FD1400200015002004150020C0200020A6
:10FBC0007BE40100DDE4010047E50100B7E5010049
:10FBD0002C210020FDE3010080B586B000AF034674
:10FBE0003960FB71FB791846FEF766FD0346FB732F
:10FBF000002007F023F8FB7903F00F03002B07D157
:10FC00001F4B1B78FA799A4202D010237B612FE0B8
:10FC10001C4B1B68DB439AB21B4B1B681A43FB7BD4
:10FC2000012101FA03F31340002B02D011237B6161
:10FC30001EE0FB791846FEF723FD38613B69002280
:10FC40009A603B693A6812681A603B685A683B6977
:10FC50005A603B6900229A73FB7B01229A400A4B4F
:10FC60001B681343084A136000237B61FEF7B8FE4C
:10FC7000002006F0EDFF7B6918461837BD4680BDB1
:10FC8000FD140020001500200415002080B400AFF2
:10FC9000024B1846BD465DF8047B70472C160020C9
:10FCA00080B582B000AF0346FB71FB791846FEF7C2
:10FCB000C0FC03461846FEF70FF8034618460837FF
:10FCC000BD4680BD80B582B000AF0346FB71FB79B5
:10FCD0001846FEF7AEFC03461846FEF755F900BF7E
:10FCE0000837BD4680BD80B582B000AF0346FB71CA
:10FCF00097F90730002B0ADBFB79184600F013F860
:10FD00000346002B03D0FB79184600F079F8FB7905
:10FD10001846FEF78EFC03461846FEF74FF900BF63
:10FD20000837BD4680BD80B582B000AF0346FB7189
:10FD3000FB791846FEF77DFC03461846FDF71EFFCB
:10FD4000034618460837BD4680BD80B582B000AF77
:10FD50000346FB71FB7901211846FEF75BF800BFF3
:10FD60000837BD4680BD80B582B000AF78600822FC
:10FD70000021786809F036FFFDF74AFF03461A466E
:10FD80007B681A70FDF752FF03461A467B685A706B
:10FD9000FDF75AFF03461A467B685A80FDF76CFF51
:10FDA00003461A467B689A80FDF77EFF03461A4693
:10FDB0007B68DA8000BF0837BD4680BD80B500AFE4
:10FDC0004C20FDF7D5FD00BF80BD80B500AF5020B1
:10FDD000FDF7CEFD00BF80BD80B500AF5420FDF71C
:10FDE000C7FD00BF80BD000080B400AF034B1B788F
:10FDF0001846BD465DF8047B704700BFFD14002027
:10FE000080B582B000AF0346FB71002006F016FFFC
:10FE1000FB791846FEF750FC03461A46012393402F
:10FE2000DA430A4B1B681340084A1360FB7903F05E
:10FE30000803002B03D1FB791846FDF795FF00203E
:10FE400006F006FF00BF0837BD4680BD0015002044
:10FE500080B483B000AF0346FB7197F90730002BE5
:10FE60000BDBFB7903F01F02074997F907305B09A9
:10FE7000012000FA02F241F8232000BF0C37BD46F2
:10FE80005DF8047B704700BF00E100E080B483B000
:10FE900000AF03463960FB7197F90730002B0ADB8E
:10FEA0003B68DAB20C4997F907305201D2B20B44E1
:10FEB00083F800230AE03B68DAB20849FB7903F0D3
:10FEC0000F03043B5201D2B20B441A7600BF0C3729
:10FED000BD465DF8047B704700E100E000ED00E006
:10FEE00080B483B000AF78607B681B0B5BB21846B0
:10FEF0000C37BD465DF8047B704780B582B000AF1B
:10FF000003460A46FB711346BB71BA7997F907306D
:10FF100011461846FFF7BAFF00BF0837BD4680BD3F
:10FF200080B582B000AF0346FB7197F907301846E1
:10FF3000FFF78EFF00BF0837BD4680BD80B582B099
:10FF400000AF0346FB80FB88184600F024F8034608
:10FF50001B68012B0CBF01230023DBB218460837B6
:10FF6000BD4680BD80B584B000AF0346FB80FB88F2
:10FF7000184600F010F803461A4600231360FB8869
:10FF8000184600F008F803461B68FB60FB6800BFDA
:10FF90001037BD4680BD80B483B000AF0346FB8000
:10FFA000FB8803F1804303F5C04318460C37BD4678
:10FFB0005DF8047B7047000080B483B000AF7860C8
:10FFC000044A7B68C2F8043300BF0C37BD465DF8B5
:10FFD000047B70470060004080B483B000AF78605D
:10FFE000054BD3F804237B68134018460C37BD46F5
:10FFF0005DF8047B704700BF0060004080B483B0B0
:020000022000DC
:1000000000AF7860094A7B6803F5A27352F8233089
:10001000064943F001027B6803F5A27341F82320EF
:1000200000BF0C37BD465DF8047B704700600040A0
:1000300080B485B000AFF860B9601346FB71164A12
:10004000FB6803F5A27352F82330134923F44F33AE
:1000500023F44073FA6802F5A27241F822300E4A86
:10006000FB6803F5A27352F82320BB681B0203F45C
:100070007C51FB791B0403F440330B4306491A43BC
:10008000FB6803F5A27341F8232000BF1437BD4677
:100090005DF8047B704700BF0060004080B483B00F
:1000A00000AF7860074A7B6803F5A27352F82330EB
:1000B0001B0A03F03F0318460C37BD465DF8047B6E
:1000C000704700BF0060004080B483B000AF78602C
:1000D000074A7B6803F5A27352F823301B0C03F028
:1000E0000303DBB218460C37BD465DF8047B70474E
:1000F0000060004080B483B000AF78607B681B680C
:100100001F2B02D84FF0A04306E07B681B6803F06A
:100110001F027B681A60034B18460C37BD465DF81A
:10012000047B70470003005080B584B000AF786056
:10013000084611461A460346FB700B46BB70134631
:100140007B703B1D1846FFF7D5FFF860FA78BB7847
:100150005B001A437B789B001A433B7E1B0242EAFA
:1001600003013B7F1B047A681943FB6802F5E072C8
:1001700043F8221000BF1037BD4680BD80B584B063
:1001800002AF78600B46FB70FB78002201920022E0
:100190000092002200217868FFF7C6FF00BF0837F1
:1001A000BD4680BD80B584B000AF78603B1D184669
:1001B000FFF7A0FFF8607A68FB6802F5E07253F879
:1001C000223023F00203BB607A68FB6802F5E0721C
:1001D000B96843F8221000BF1037BD4680BD80B516
:1001E00084B000AF78600B46FB703B1D1846FFF7EC
:1001F00081FFF8607A68FB6802F5E07253F82230FC
:100200007A6823F44031FB6802F5E07243F822106B
:100210007A68FB6802F5E07253F82230FA7812042B
:1002200011467A681943FB6802F5E07243F8221020
:1002300000BF1037BD4680BD80B584B000AF786088
:100240003B1D1846FFF756FFF860F86800F021F8EC
:1002500002467B6822FA03F303F0010318461037C5
:10026000BD4680BD80B584B000AF78603B1D1846A8
:10027000FFF740FFF8607A68FB6802F5E07253F818
:1002800022301B0C03F00303DBB218461037BD46C7
:1002900080BD80B483B000AF78607B68D3F8103540
:1002A00018460C37BD465DF8047B704780B489B0B2
:1002B00000AFF860B9607A60194A07F1140392E858
:1002C000030083E80300FB68FB611BE0FB699B0004
:1002D00007F12002134453F80C3CD3F820257B6827
:1002E0001A60FB699B0007F12002134453F80C3C91
:1002F0007A681268C3F820257B6804337B60FB6949
:100300000133FB61FA68BB681344FA699A42DDD392
:1003100000BF00BF2437BD465DF8047B704700BFB7
:1003200064B3020080B584B000AF78603B1D18460E
:10033000FFF7E0FEF8607B68012202FA03F31A4639
:10034000FB68C3F8202500BF1037BD4680BD80B4D0
:1003500085B000AF78607B685B09BB600023FB6001
:10036000BB68002B03D0BB68012B04D007E04FF023
:10037000FF33FB6003E04FF6FF73FB6000BF7B6859
:1003800003F01F037B60FA687B6822FA03F303F033
:100390000103002B14BF01230023DBB218461437DE
:1003A000BD465DF8047B704780B485B000AF7860CF
:1003B00039603B68FB607B68DB08BB607B6803F0EF
:1003C00007037B6001227B6802FA03F3F968BA68CD
:1003D0000A441278134018461437BD465DF8047B72
:1003E000704780B485B000AF786039603B68FB60CF
:1003F0007B68DB08BB607B6803F007037B60FA68FF
:10040000BB6813441B785AB201217B6801FA03F3DD
:100410005BB2134359B2FA68BB681344CAB21A708C
:1004200000BF1437BD465DF8047B704780B483B0CD
:1004300000AF78600D4A7B681344303393F9003085
:10044000002B09DB094A7B681344303393F90030F1
:10045000072B01DC012300E0002303F00103DBB2E2
:1004600018460C37BD465DF8047B70476C160020BB
:1004700080B483B000AF7860084A7B68134430339F
:1004800093F90030072BCCBF01230023DBB21846C1
:100490000C37BD465DF8047B704700BF6C1600202A
:1004A00080B483B000AF7860074A7B681344303370
:1004B00093F90030DB43DBB2DB09DBB218460C37C3
:1004C000BD465DF8047B70476C16002080B485B093
:1004D00000AFF860B9607A60FB70BB6859B2104A2F
:1004E000FB68134430330A461A700D49BB687A68BA
:1004F00041F82320FB7883F00103DBB2002B08D006
:10050000BB68083BFA6851B2054A13440A4683F8AF
:10051000602000BF1437BD465DF8047B704700BF04
:100520006C16002080B483B000AF7860054A7B6809
:1005300013443033FF221A7000BF0C37BD465DF8FC
:10054000047B70476C16002080B582B000AF7860E5
:1005500003497868FFF745FF00BF0837BD4680BDF7
:10056000D016002080B483B000AF7860054A7B6865
:100570001344303393F9003018460C37BD465DF80C
:10058000047B70476C16002080B483B000AF7860A5
:10059000044A7B6852F8233018460C37BD465DF894
:1005A000047B70476C16002080B485B000AF786083
:1005B000074A7B681344603393F90030FB73FB7B7D
:1005C00023F0C00318461437BD465DF8047B70471E
:1005D0006C16002080B485B000AF7860074A7B6855
:1005E0001344603393F90030FB73FB7B9B09DBB250
:1005F00018461437BD465DF8047B70476C16002022
:1006000080B588B000AFF860B9601346FB71FF2376
:10061000FB77FB79002B01D0002300E008237B61EE
:10062000FB79002B01D0082300E00C233B617B69A0
:10063000BB6112E00E4ABB6952F82330B3F1FF3FB1
:1006400008D1FB79BA68B969F868FFF73FFFBB6961
:10065000FB7706E0BB690133BB61BA693B699A422B
:10066000E8D397F91F3018462037BD4680BD00BF3C
:100670006C16002080B483B000AF0346FB71FB7999
:100680000A4A4FF0FF3142F82310FB79072B06D9B5
:10069000FB79083B054A1344FF2283F8602000BF22
:1006A0000C37BD465DF8047B704700BF6C16002018
:1006B00080B582B000AF284B93F86A30002B03D08E
:1006C00008237B607B6843E00023FB700DE0FB7830
:1006D0001846FFF73CFE0346002B03D0FB78184674
:1006E000FFF720FFFB780133FB70FB782F2BEED94F
:1006F0000023FB7006E0FB781846FFF7BBFFFB7892
:100700000133FB70FB780B2BF5D90622002113482F
:1007100009F068FA1248FFF7E3FB03460621184682
:10072000FFF7EBFB0E48FFF7DBFB03461846FFF72E
:10073000F7FB4FF4BE70FFF715FC4FF00040FFF7DA
:100740003BFC054B012283F86A2000237B607B6819
:1007500018460837BD4680BD6C160020D016002014
:100760000060004080B586B000AFF860B9607A6084
:1007700000237B61F868FFF793FE0346002B02D04D
:1007800008237B6156E0BB689B78C3F34003DBB270
:100790001A467968F868FFF733FF0346FB7497F948
:1007A0001330B3F1FF3F43D0BB689B78C3F38003A2
:1007B000DBB283F00103DBB2002B13D0BB689B7864
:1007C00003F00103DBB2002B03D0F868FFF7EAFC6B
:1007D00005E0BB685B781946F868FFF7CFFCF8685E
:1007E000FFF7B2FEBB689B7803F00203DBB2002B7D
:1007F00008D097F91300BB681B781A46F968FFF711
:1008000017FC17E097F91330083B0D4A134493F98E
:100810006010BB681B789B015AB297F91330083BF4
:100820000A4351B2064A13440A4683F8602001E0A5
:1008300004237B617B6918461837BD4680BD00BF25
:100840006C16002080B588B000AF78600B46FB7056
:100850007868FFF70DFE0346002B24D07868FFF779
:1008600081FE0346083B1846FFF7B4FE0346FB73C0
:10087000FB7B032B0AD17868FFF7DEFC0346002BD5
:1008800001D0032300E00223FB7706E0FB7B012B72
:1008900001D1022300E00323FB77FB7F1946786830
:1008A000FFF79DFC2DE07868FFF7C0FD0346002BA5
:1008B00027D07868FFF756FE0346BB61BB699BB241
:1008C00040339BB29B00FB82BB691846FFF796FB47
:1008D000FB8A1846FFF746FBFB78002B11D078689F
:1008E000FFF740FE03461846FFF74EFE38613B69AE
:1008F000002B06D00122BB6902FA03F31846FFF76A
:100900005BFB00BF2037BD4680BD80B584B000AF23
:1009100078607A6802210020FFF7C8FC0023FB60A2
:100920000BE0FB689B007A6813441B68002B01D026
:10093000012306E0FB680133FB60FB68012BF0D963
:10094000002318461037BD4680BD000080B586B034
:1009500000AF786000237B6150E02F4A7B6913442D
:10096000603393F90030B3F1FF3F43D07869FFF76C
:100970001BFE386179683869FFF716FD0346002BC6
:1009800039D07869FFF726FE0346FB733869FFF715
:1009900069FC0346BB73BB7B022B01D1032300E040
:1009A00002237B737B7B19463869FFF718FC386993
:1009B000FFF7B8FC3869FFF7D5FD03461846FFF787
:1009C000E3FDB860BB68002B15D0FB7B032B0BD07D
:1009D000BB7B022B02D1FB7B012B05D0BB7B032B06
:1009E00009D1FB7B022B06D1FA7BBB681146386923
:1009F000984700E000BF7B6901337B617B69032B73
:100A0000ABD97868FFF781FF0346002BA2D100BF66
:100A100000BF1837BD4680BD6C16002080B58AB077
:100A200000AF00233B623B1D00221A605A604FF466
:100A300080737B8301237B620023FB611DE07B8B42
:100A40001846FFF77BFA0346002B0DD0786AFFF7B4
:100A5000C3FA0346002B07D07B8B1846FFF782FAB8
:100A60003A6A7B6A13433B627B6A5B007B627B8BE7
:100A700004337B83FB690133FB61FB69072BDED900
:100A80004FF4BE70FFF75AFA0346002B0DD04FF417
:100A9000BE70FFF767FA3B6A43F000433B623B1DC1
:100AA0001A4602210020FFF701FC3B6ADBB2002B53
:100AB00027D001237B620023FB611FE07A6A3B6A37
:100AC0001340002B14D0F869FFF7E8FA7861F86951
:100AD000FFF7FAFA0346FB74F869FFF755FDF86073
:100AE000FB68002B04D0FA7CFB68114678699847B4
:100AF0007B6A5B007B62FB690133FB61FB69072B4F
:100B0000DCD93B6A002B03DA3B1D1846FFF71EFFBA
:100B100000BF2837BD4680BD80B400AFBFF34F8F04
:100B200000BF064BDB6803F4E0620449044B134347
:100B3000CB60BFF34F8F00BF00BFFDE700ED00E0CB
:100B40000400FA0580B483B000AF184B1B687B60CB
:100B5000174B1B683B607B68082B1FD13B68052B3C
:100B60001AD801A252F823F0810B0200850B020073
:100B7000890B02008D0B0200910B0200950B020005
:100B800001230CE001230AE0012308E0012306E031
:100B9000012304E0012302E0012300E000231846C2
:100BA0000C37BD465DF8047B704700BF3001001074
:100BB0003401001080B483B000AF184B1B687B6019
:100BC000174B1B683B607B68082B1FD13B68052BCC
:100BD0001AD801A252F823F0F10B0200F50B020023
:100BE000F90B0200FD0B0200010C0200050C0200D3
:100BF00001230CE001230AE0012308E0012306E0C1
:100C0000012304E0012302E0012300E00023184651
:100C10000C37BD465DF8047B704700BF3001001003
:100C20003401001080B483B000AF184B1B687B60A8
:100C3000174B1B683B607B68082B1FD13B68052B5B
:100C40001AD801A252F823F0610C0200650C0200D0
:100C5000690C02006D0C0200710C0200750C0200A0
:100C600001230CE000230AE0002308E0002306E053
:100C7000002304E0002302E0002300E000231846E4
:100C80000C37BD465DF8047B704700BF3001001093
:100C90003401001080B483B000AF184B1B687B6038
:100CA000174B1B683B607B68082B1FD13B68052BEB
:100CB0001AD801A252F823F0D10C0200D50C020080
:100CC000D90C0200DD0C0200E10C0200E50C020070
:100CD00001230CE000230AE0002308E0002306E0E3
:100CE000002304E0002302E0002300E00023184674
:100CF0000C37BD465DF8047B704700BF3001001023
:100D00003401001080B483B000AF184B1B687B60C7
:100D1000174B1B683B607B68082B1FD13B68052B7A
:100D20001AD801A252F823F0410D0200450D02002D
:100D3000490D02004D0D0200510D0200550D02003B
:100D400001230CE000230AE0002308E0002306E072
:100D5000002304E0002302E0002300E00023184603
:100D60000C37BD465DF8047B704700BF30010010B2
:100D70003401001080B483B000AF184B1B687B6057
:100D8000174B1B683B607B68082B1FD13B68052B0A
:100D90001AD801A252F823F0B10D0200B50D0200DD
:100DA000B90D0200BD0D0200C10D0200C50D02000B
:100DB00001230CE000230AE0002308E0002306E002
:100DC000002304E0002302E0002300E00023184693
:100DD0000C37BD465DF8047B704700BF3001001042
:100DE0003401001080B483B000AF184B1B687B60E7
:100DF000174B1B683B607B68082B1FD13B68052B9A
:100E00001AD801A252F823F0210E0200250E02008A
:100E1000290E02002D0E0200310E0200350E0200D6
:100E200001230CE001230AE0012308E0012306E08E
:100E3000012304E0012302E0012300E0002318461F
:100E40000C37BD465DF8047B704700BF30010010D1
:100E50003401001080B483B000AF184B1B687B6076
:100E6000174B1B683B607B68082B1FD13B68052B29
:100E70001AD801A252F823F0910E0200950E02003A
:100E8000990E02009D0E0200A10E0200A50E0200A6
:100E900000230CE000230AE0002308E0002306E022
:100EA000012304E0012302E0012300E000231846AF
:100EB0000C37BD465DF8047B704700BF3001001061
:100EC0003401001080B500AFFFF7C4FF0346002BCC
:100ED00007D04FF010234FF08042D3F80832C2F809
:100EE000583500BF80BD000080B400AF00BF054B87
:100EF000D3F80034002BFAD000BF00BFBD465DF828
:100F0000047B704700E0014080B582B000AF78609C
:100F1000044A7B68C2F80435FFF7E6FF00BF0837D4
:100F2000BD4680BD00E0014080B400AF034B044AE1
:100F30001A6000BFBD465DF8047B70479C1100201D
:100F40000090D00380B500AFFFF7FCFD0346002BF7
:100F50000ED04FF080430022C3F80C214FF08043A5
:100F60000022C3F810214FF080430022C3F8382537
:100F7000FFF720FE0346002B76D04FF08053744AD3
:100F8000D3F80434C2F820354FF08053704AD3F8B8
:100F90000834C2F824354FF080536D4AD3F80C342E
:100FA000C2F828354FF08053694AD3F81034C2F89C
:100FB0002C354FF08053664AD3F81434C2F83035DC
:100FC0004FF08053624AD3F81834C2F834354FF0EA
:100FD00080535F4AD3F81C34C2F840354FF0805339
:100FE0005B4AD3F82034C2F844354FF08053584A56
:100FF000D3F82434C2F848354FF08053544AD3F81C
:101000002834C2F84C354FF08053514AD3F82C3471
:10101000C2F850354FF080534D4AD3F83034C2F8FF
:1010200054354FF080534A4AD3F83434C2F860350F
:101030004FF08053464AD3F83834C2F864354FF045
:101040008053434AD3F83C34C2F868354FF080539C
:101050003F4AD3F84034C2F86C354FF080533C4AD5
:10106000D3F84434C2F87035FFF7DCFD0346002B9B
:1010700002D0384B384A1A60FFF70CFE0346002BAB
:1010800003D0364BFB22C3F81825FFF73BFE03467F
:10109000002B0AD0324B1B6823F00F02314B1B6828
:1010A00003F00F032E4913430B60FFF763FE034663
:1010B000002B03D02C4B4FF400721A60FFF792FE06
:1010C0000346002B0DD04FF08043D3F8003403F0DB
:1010D0000103002B05D04FF080436FF00102C3F8ED
:1010E0000024224BD3F88830204A43F47003C2F81E
:1010F0008830BFF34F8F00BFBFF36F8F00BFFFF784
:10110000E1FE4FF01023D3F80032002B05DB4FF047
:101110001023D3F80432002B15DA0120FFF7F4FE78
:101120004FF010231222C3F80022FFF7DDFE4FF02C
:1011300010231222C3F80422FFF7D6FE0020FFF787
:10114000E3FEFFF7E9FCFFF7EFFE00BF80BD00BF45
:1011500000C000408C5600404881030000F0004071
:10116000E40E0040580200104096024000ED00E0FE
:1011700080B582B000AF786039607B681B681B68FF
:1011800039687868984700BF0837BD4680BD80B58C
:1011900082B000AF78607B681B685B6878689847AE
:1011A00000BF0837BD4680BD80B582B000AF786013
:1011B0007B681B689B687868984700BF0837BD4606
:1011C00080BD80B483B000AF78600B46FB707B6855
:1011D000DB68FA781A7100BF0C37BD465DF8047BF6
:1011E000704780B483B000AF78607B68DB681B79A0
:1011F00018460C37BD465DF8047B704780B483B059
:1012000000AF78607B68DB6801225A7100BF0C3741
:10121000BD465DF8047B704780B483B000AF786052
:101220007B68DB685B7918460C37BD465DF8047B4C
:101230007047000080B58CB000AF78603960364BE5
:1012400000221A70354806F044FC38623B6A002BD5
:1012500001D03B6A5CE0324806F0AFFD314A324BC8
:10126000D31ADB08FB610023FB6232E000237B62C0
:101270000023BB621DE0FA6ABB6A9A4216D0FB6A81
:10128000DB00294A13441B68FB60BB6ADB00264A6B
:1012900013441B68BB601422B968F86808F0FEFDAF
:1012A0000346002B02DD7B6A01337B62BB6A01339C
:1012B000BB62BA6AFB699A42DDD3FB6A9B001B4A98
:1012C00013443B617B6A9AB23B691A80FB6A013323
:1012D000FB62FA6AFB699A42C8D30023FB6212E000
:1012E000FB6A9B00114A1344BB61FB6A9B00104AD6
:1012F00013447B61BB6900225A807B6900221A601B
:10130000FB6A0133FB62FA6AFB699A42E8D3002365
:1013100018463037BD4680BD40180020B0C10200DD
:1013200000B40200B0C10200E0C00200AC13002013
:101330001414002080B400AF044A054BD31ADB0814
:101340001846BD465DF8047B704700BFB0C102007F
:10135000E0C0020080B586B000AF78600B46FB703D
:10136000FB78002B1FD0FFF7E5FF386100237B617E
:1013700013E07B699B000E4A1344FB60FB681B88EB
:101380001A467B681B689A4204D17B687A691A60A6
:10139000002309E07B6901337B617A693B699A42EA
:1013A000E7D3052300E0002318461837BD4680BD6B
:1013B000AC13002080B584B000AF78600B46FB70A2
:1013C000FA783B1D11461846FFF7C4FF0346002B71
:1013D00007D17B68DB00054A1344FB60FB681B6890
:1013E00000E0002318461037BD4680BDE0C0020073
:1013F00080B485B000AF78600B46FB707B68DB0083
:10140000144A1344BB60FB78013B032B18D801A29C
:1014100052F823F0251402002B14020031140200AC
:10142000391402000223FB730DE00423FB730AE06E
:10143000BB681B79FB7306E0BB685B79FB7302E05A
:101440000023FB7300BFFB7B18461437BD465DF8D5
:10145000047B7047E0C0020080B487B000AF7860C2
:101460000023FB8200233B6111E007223B699A4085
:101470007B681A403B6922FA03F3FB81FA89FB8AF5
:101480009A4201D9FB89FB823B6903333B613B698B
:10149000092BEAD9FB8A18461C37BD465DF8047B48
:1014A0007047000080B586B000AFF860B9601346A1
:1014B000FB71BB689B001B4A13447B61BB689B00AC
:1014C000194A13443B613B691968FA6813465B008B
:1014D0001344072202FA03F3DB4301EA03023B69E8
:1014E0001A603B691968F879FA6813465B0013447F
:1014F0009840FA6813465B001344072202FA03F38C
:10150000034041EA03023B691A603B691B681846C5
:10151000FFF7A2FF03461A467B695A8000BF1837BF
:10152000BD4680BDAC1300201414002080B485B0EB
:1015300000AF78607B68DB00054A1344FB60FB6802
:10154000DB7918461437BD465DF8047B704700BF51
:10155000E0C0020080B485B000AF7860396000233D
:10156000FB737B681B7803F00403DBB2002B23D0F2
:101570007B681B78C3F30103DBB2012B02D0022B83
:101580000CD017E03B681B687A681288C2F383129C
:10159000D2B213449A1C3B681A600BE03B681B688C
:1015A0007A685288C2F3891292B213449A1C3B683B
:1015B0001A6000BF0123FB73FB7B18461437BD463E
:1015C0005DF8047B7047000080B58AB000AF00234F
:1015D000FB84384806F0BEF9374806F0BBF9374BB4
:1015E0009B683B61364B1B68BB613A69BB69134022
:1015F00002339B00314A134404333B6207F110036A
:101600001946386AFFF7A6FF0346002B09D03A694E
:10161000BB69134002339B00284A134404333B62E6
:10162000ECE700BF0023FB6111E03B695A1C3A6103
:10163000BA691340FA699200391D0A441F490233FE
:101640009B000B445B681360FB690133FB61FB6922
:10165000012BEAD93B79C3F30103DBB2012B0DD097
:10166000022B16D17B89FB84FB88C3F389139BB2C1
:1016700003339A083B6913443B610BE07B89FB848D
:10168000BB88C3F38313DBB21A463B6913443B6147
:1016900000E000BF084806F06AF978617B69002B1A
:1016A00002D03B69054A9360FB8C18462837BD463B
:1016B00080BD00BF581C0020541C00204018002092
:1016C000A011002080B584B000AF0021074806F0CB
:1016D000AAF8F860FB68BB60BB6883F310037B600B
:1016E0007B6818461037BD4680BD00BF5C1C0020DB
:1016F00080B588B000AFF860B9607A603B60FB6885
:101700001B0CBB61FFF7DEFFF861FB6919043B6846
:101710005A1CBB6A1340BA690A431B4902339B0037
:101720000B445A603A68BB6A134002339B00164A66
:10173000134404337B61FB6803F00703D9B27A6971
:10174000137861F3C50313707B6803F00F03D9B2FC
:101750007A69138861F389131380BB68C3F3150199
:101760007A69136861F39F2313607A691378012102
:1017700061F3010313707A6913786FF382031370B6
:1017800000BF2037BD4680BD4018002080B400AFA8
:1017900000BFBD465DF8047B7047000080B58AB08D
:1017A00000AFF860B9601346FB71FB6802333B621F
:1017B0000123FB77002005F041FA374B5A68BB68DC
:1017C0001A60364B1A68344B9968334B5B68CB1AF6
:1017D000134401337B6214E00121314806F06DF8B7
:1017E000FFF7F2FE786179692D4806F066F82B4B19
:1017F0001A68294B9968284B5B68CB1A134401334C
:101800007B623A6A7B6A9A42E6D8FB7F002B3BD028
:1018100000233B61FB79002B11D03B7C012262F35A
:1018200001033B743B7C43F004033B74FB6803F00F
:101830000F03DAB23B8A62F389133B8210E03B7CF0
:10184000022262F301033B743B7C43F004033B74CC
:10185000FB68C3F309039AB27B8A62F38F137B821E
:101860000D4B5A680D4B1B68134002339B000A4A0C
:1018700013440433BB613A69BB691A60064B5A686A
:101880003B6A1344044A5360002005F0E1F9FB7FF2
:1018900018462837BD4680BD40180020A011002002
:1018A0005C1C002080B58AB002AFF860B9607A6035
:1018B0003B60214B1B687B6107F110030122194635
:1018C0003868FFF76BFF0346002B24D03B690233D7
:1018D000FB610023BB6111E0BB699B007A681A447D
:1018E000FB69591CF96179690B401268134902338D
:1018F0009B000B445A60BB690133BB61BA693B680A
:101900009A42E9D33A697B69009313463A68B96809
:10191000F868FFF7EDFE094B1B78002B05D000BFE0
:1019200000F074F80346002BFAD1FFF72FFF00BF39
:101930002037BD4680BD00BFA01100204018002008
:1019400080B582B000AF786039600023002239682A
:101950007868FFF7A7FF00BF0837BD4680BD80B598
:1019600086B000AFF860B9607A607B687B6107F190
:1019700014020123B968F868FFF794FF00BF183715
:10198000BD4680BD80B588B000AFF860B9607A60B0
:101990003B607B687B613B68BB61BB6AFB6107F1B5
:1019A00014020323B968F868FFF77CFF00BF2037F3
:1019B000BD4680BD80B588B000AFF860B9607A6080
:1019C0003B607B683B613B687B61BB6ABB61FB6AD8
:1019D000FB6107F110020423B968F868FFF762FFA2
:1019E00000BF2037BD4680BD80B400AF064B9A686B
:1019F000054B5B689A420CBF01230023DBB21846FB
:101A0000BD465DF8047B70474018002080B59AB051
:101A100000AFFFF7E9FF0346002B01D00023D5E11B
:101A2000944B0022C3F81824BFF34F8F00BF914B93
:101A30009B683B61904B1B687B643A697B6C1340ED
:101A400002339B008B4A134404337B6600233B66BE
:101A50000023FB650023BB6507F110031946786E70
:101A6000FFF778FD0346002B19D0824BD3F81834CA
:101A7000002B14D17F4B5A683B699A4205D87D4BA5
:101A80005B687C4A93600023A0E13A697B6C134059
:101A900002339B00774A134404337B66DCE7002360
:101AA0007B6511E03B695A1C3A617A6C13407A6D90
:101AB0009200391D0A446F4902339B000B445B6856
:101AC00013607B6D01337B657B6D012BEAD93B791C
